{
  "address": "0xf1CEFe1b28ee6768597f177eca6616aD44C96418",
  "abi": [
    {
      "inputs": [
        {
          "internalType": "address[]",
          "name": "_validators",
          "type": "address[]"
        }
      ],
      "stateMutability": "nonpayable",
      "type": "constructor"
    },
    {
      "anonymous": false,
      "inputs": [
        {
          "indexed": false,
          "internalType": "bytes32",
          "name": "id",
          "type": "bytes32"
        },
        {
          "indexed": false,
          "internalType": "bytes32",
          "name": "email",
          "type": "bytes32"
        },
        {
          "indexed": false,
          "internalType": "address",
          "name": "wallet",
          "type": "address"
        }
      ],
      "name": "AcceptedRequestItem",
      "type": "event"
    },
    {
      "anonymous": false,
      "inputs": [
        {
          "indexed": false,
          "internalType": "bytes32",
          "name": "id",
          "type": "bytes32"
        },
        {
          "indexed": false,
          "internalType": "bytes32",
          "name": "email",
          "type": "bytes32"
        },
        {
          "indexed": false,
          "internalType": "address",
          "name": "wallet",
          "type": "address"
        }
      ],
      "name": "AddedRequestItem",
      "type": "event"
    },
    {
      "anonymous": false,
      "inputs": [
        {
          "indexed": false,
          "internalType": "bytes32",
          "name": "id",
          "type": "bytes32"
        },
        {
          "indexed": false,
          "internalType": "bytes32",
          "name": "email",
          "type": "bytes32"
        },
        {
          "indexed": false,
          "internalType": "address",
          "name": "wallet",
          "type": "address"
        }
      ],
      "name": "RejectedRequestItem",
      "type": "event"
    },
    {
      "anonymous": false,
      "inputs": [
        {
          "indexed": false,
          "internalType": "bytes32",
          "name": "email",
          "type": "bytes32"
        },
        {
          "indexed": false,
          "internalType": "address",
          "name": "wallet1",
          "type": "address"
        },
        {
          "indexed": false,
          "internalType": "address",
          "name": "wallet2",
          "type": "address"
        }
      ],
      "name": "UpdatedLinkItem",
      "type": "event"
    },
    {
      "inputs": [],
      "name": "NULL",
      "outputs": [
        {
          "internalType": "bytes32",
          "name": "",
          "type": "bytes32"
        }
      ],
      "stateMutability": "view",
      "type": "function"
    },
    {
      "inputs": [
        {
          "internalType": "bytes32",
          "name": "_id",
          "type": "bytes32"
        },
        {
          "internalType": "bytes32",
          "name": "_email",
          "type": "bytes32"
        },
        {
          "internalType": "address",
          "name": "_wallet",
          "type": "address"
        },
        {
          "internalType": "bytes",
          "name": "_signature",
          "type": "bytes"
        }
      ],
      "name": "addRequest",
      "outputs": [],
      "stateMutability": "nonpayable",
      "type": "function"
    },
    {
      "inputs": [
        {
          "internalType": "bytes32",
          "name": "_id",
          "type": "bytes32"
        }
      ],
      "name": "canCountVote",
      "outputs": [
        {
          "internalType": "uint8",
          "name": "",
          "type": "uint8"
        }
      ],
      "stateMutability": "view",
      "type": "function"
    },
    {
      "inputs": [
        {
          "internalType": "bytes32",
          "name": "_id",
          "type": "bytes32"
        }
      ],
      "name": "countVote",
      "outputs": [],
      "stateMutability": "nonpayable",
      "type": "function"
    },
    {
      "inputs": [],
      "name": "getAddressOfValidators",
      "outputs": [
        {
          "internalType": "address[]",
          "name": "",
          "type": "address[]"
        }
      ],
      "stateMutability": "view",
      "type": "function"
    },
    {
      "inputs": [
        {
          "internalType": "bytes32",
          "name": "_id",
          "type": "bytes32"
        }
      ],
      "name": "getRequestItem",
      "outputs": [
        {
          "internalType": "uint32",
          "name": "agreement",
          "type": "uint32"
        },
        {
          "internalType": "enum LinkCollection.RequestStatus",
          "name": "status",
          "type": "uint8"
        }
      ],
      "stateMutability": "view",
      "type": "function"
    },
    {
      "inputs": [
        {
          "internalType": "uint256",
          "name": "_idx",
          "type": "uint256"
        }
      ],
      "name": "getValidator",
      "outputs": [
        {
          "components": [
            {
              "internalType": "address",
              "name": "validator",
              "type": "address"
            },
            {
              "internalType": "uint256",
              "name": "index",
              "type": "uint256"
            },
            {
              "internalType": "string",
              "name": "endpoint",
              "type": "string"
            },
            {
              "internalType": "enum LinkCollection.ValidatorStatus",
              "name": "status",
              "type": "uint8"
            }
          ],
          "internalType": "struct LinkCollection.ValidatorItem",
          "name": "",
          "type": "tuple"
        }
      ],
      "stateMutability": "view",
      "type": "function"
    },
    {
      "inputs": [],
      "name": "getValidatorLength",
      "outputs": [
        {
          "internalType": "uint256",
          "name": "",
          "type": "uint256"
        }
      ],
      "stateMutability": "view",
      "type": "function"
    },
    {
      "inputs": [],
      "name": "getValidators",
      "outputs": [
        {
          "components": [
            {
              "internalType": "address",
              "name": "validator",
              "type": "address"
            },
            {
              "internalType": "uint256",
              "name": "index",
              "type": "uint256"
            },
            {
              "internalType": "string",
              "name": "endpoint",
              "type": "string"
            },
            {
              "internalType": "enum LinkCollection.ValidatorStatus",
              "name": "status",
              "type": "uint8"
            }
          ],
          "internalType": "struct LinkCollection.ValidatorItem[]",
          "name": "",
          "type": "tuple[]"
        }
      ],
      "stateMutability": "view",
      "type": "function"
    },
    {
      "inputs": [
        {
          "internalType": "bytes32",
          "name": "_id",
          "type": "bytes32"
        }
      ],
      "name": "isAvailable",
      "outputs": [
        {
          "internalType": "bool",
          "name": "",
          "type": "bool"
        }
      ],
      "stateMutability": "view",
      "type": "function"
    },
    {
      "inputs": [
        {
          "internalType": "address",
          "name": "_wallet",
          "type": "address"
        }
      ],
      "name": "nonceOf",
      "outputs": [
        {
          "internalType": "uint256",
          "name": "",
          "type": "uint256"
        }
      ],
      "stateMutability": "view",
      "type": "function"
    },
    {
      "inputs": [
        {
          "internalType": "bytes32",
          "name": "_email",
          "type": "bytes32"
        }
      ],
      "name": "toAddress",
      "outputs": [
        {
          "internalType": "address",
          "name": "",
          "type": "address"
        }
      ],
      "stateMutability": "view",
      "type": "function"
    },
    {
      "inputs": [
        {
          "internalType": "address",
          "name": "_wallet",
          "type": "address"
        }
      ],
      "name": "toEmail",
      "outputs": [
        {
          "internalType": "bytes32",
          "name": "",
          "type": "bytes32"
        }
      ],
      "stateMutability": "view",
      "type": "function"
    },
    {
      "inputs": [
        {
          "internalType": "bytes32",
          "name": "_email",
          "type": "bytes32"
        },
        {
          "internalType": "address",
          "name": "_wallet1",
          "type": "address"
        },
        {
          "internalType": "bytes",
          "name": "_signature1",
          "type": "bytes"
        },
        {
          "internalType": "address",
          "name": "_wallet2",
          "type": "address"
        },
        {
          "internalType": "bytes",
          "name": "_signature2",
          "type": "bytes"
        }
      ],
      "name": "update",
      "outputs": [],
      "stateMutability": "nonpayable",
      "type": "function"
    },
    {
      "inputs": [
        {
          "internalType": "string",
          "name": "_endpoint",
          "type": "string"
        }
      ],
      "name": "updateEndpoint",
      "outputs": [],
      "stateMutability": "nonpayable",
      "type": "function"
    },
    {
      "inputs": [
        {
          "internalType": "bytes32",
          "name": "_id",
          "type": "bytes32"
        }
      ],
      "name": "voteRequest",
      "outputs": [],
      "stateMutability": "nonpayable",
      "type": "function"
    }
  ],
  "transactionHash": "0x0514ad3e3baf2e18c4acfd4d75b4529691e1cb764f263e52d6d3de23be71aa4e",
  "args": [
    [
      "0xc86c00147049695C3Cad5eA4ebb75B6bd4f09126",
      "0x1424bd767541666DF9658550FCf156FDaCd52934",
      "0x4376b9f7F6E6fa2d543910dCec2CDcC290A97722"
    ]
  ],
  "numDeployments": 1,
  "solcInputHash": "e23f390c4c2da17efa624d606cd035d2",
  "bytecode": "0x60806040523480156200001157600080fd5b5060405162002319380380620023198339810160408190526200003491620002d8565b60005b8151811015620001fb57600060405180608001604052808484815181106200006f57634e487b7160e01b600052603260045260246000fd5b60200260200101516001600160a01b03168152602001838152602001604051806020016040528060008152508152602001600180811115620000c157634e487b7160e01b600052602160045260246000fd5b81525090506007838381518110620000e957634e487b7160e01b600052603260045260246000fd5b6020908102919091018101518254600181018455600093845291832090910180546001600160a01b0319166001600160a01b03909216919091179055835182916006918690869081106200014d57634e487b7160e01b600052603260045260246000fd5b6020908102919091018101516001600160a01b039081168352828201939093526040918201600020845181546001600160a01b0319169416939093178355838101516001840155908301518051620001ac926002850192019062000215565b50606082015160038201805460ff191660018381811115620001de57634e487b7160e01b600052602160045260246000fd5b02179055509050505080620001f39062000404565b905062000037565b506200020b60036107d0620003a6565b6005555062000442565b8280546200022390620003c7565b90600052602060002090601f01602090048101928262000247576000855562000292565b82601f106200026257805160ff191683800117855562000292565b8280016001018555821562000292579182015b828111156200029257825182559160200191906001019062000275565b50620002a0929150620002a4565b5090565b5b80821115620002a05760008155600101620002a5565b80516001600160a01b0381168114620002d357600080fd5b919050565b60006020808385031215620002eb578182fd5b82516001600160401b038082111562000302578384fd5b818501915085601f83011262000316578384fd5b8151818111156200032b576200032b6200042c565b838102604051858282010181811085821117156200034d576200034d6200042c565b604052828152858101935084860182860187018a10156200036c578788fd5b8795505b8386101562000399576200038481620002bb565b85526001959095019493860193860162000370565b5098975050505050505050565b600082620003c257634e487b7160e01b81526012600452602481fd5b500490565b600281046001821680620003dc57607f821691505b60208210811415620003fe57634e487b7160e01b600052602260045260246000fd5b50919050565b60006000198214156200042557634e487b7160e01b81526011600452602481fd5b5060010190565b634e487b7160e01b600052604160045260246000fd5b611ec780620004526000396000f3fe608060405234801561001057600080fd5b50600436106101005760003560e01c8063b7ab4db511610097578063d073a8fa11610066578063d073a8fa1461022f578063e149729b14610242578063ed2a2d6414610262578063f26be3fc1461027557610100565b8063b7ab4db5146101ec578063bd3f40ad14610201578063bebe9daf14610214578063cdda36c71461021c57610100565b8063554d9f5f116100d3578063554d9f5f146101845780635c019d2e1461019957806389b6f027146101ac578063b5d89627146101cc57610100565b806318907d4c14610105578063254f6b661461012e578063341f6623146101435780633c75f7bd14610163575b600080fd5b6101186101133660046116f0565b61027d565b6040516101259190611a50565b60405180910390f35b61014161013c3660046117c4565b61029c565b005b610156610151366004611711565b610570565b6040516101259190611966565b610176610171366004611711565b61058b565b604051610125929190611d33565b61018c6105b5565b604051610125919061197a565b6101416101a736600461182a565b6106ab565b6101bf6101ba366004611711565b61077c565b6040516101259190611a45565b6101df6101da366004611711565b6107cb565b6040516101259190611d20565b6101f4610948565b60405161012591906119c7565b61014161020f366004611729565b610b4b565b610118610ebf565b61014161022a366004611711565b610ec5565b61014161023d366004611711565b611017565b610255610250366004611711565b61122e565b6040516101259190611d5d565b6101186102703660046116f0565b6112ba565b6101186112d5565b6001600160a01b0381166000908152600160205260409020545b919050565b600085815260036020819052604082206006015460ff16908111156102d157634e487b7160e01b600052602160045260246000fd5b146102f75760405162461bcd60e51b81526004016102ee90611cb2565b60405180910390fd5b7fe3b0c44298fc1c149afbf4c8996fb92427ae41e4649b934ca495991b7852b8558414156103375760405162461bcd60e51b81526004016102ee90611b0b565b6001600160a01b03831660009081526002602090815260408083205490516103659288928892909101611a78565b604051602081830303815290604052805190602001209050836001600160a01b03166103cf610393836112f9565b85858080601f01602080910402602001604051908101604052809392919081815260200183838082843760009201919091525061132c92505050565b6001600160a01b0316146103f55760405162461bcd60e51b81526004016102ee90611c1e565b6000858152602081905260409020546001600160a01b03161561042a5760405162461bcd60e51b81526004016102ee90611b0b565b6001600160a01b038416600090815260016020526040902054156104605760405162461bcd60e51b81526004016102ee90611b42565b6001600160a01b038416600090815260026020526040812080549161048483611df2565b909155505060008681526003602081905260409091208781556001810187905560028101805473ffffffffffffffffffffffffffffffffffffffff19166001600160a01b0388161790556104da9101848461153d565b50600086815260036020526040808220600601805460ff191660019081179091556004805491820181559092527f8a35acfbc15ff81a39ae7d344fd709f28e8600b4aa8c65c6b64bfe7fe36bd19b909101879055517fe6a2d4e07ab2833fd61d7b97778475d2bec415a59eb8a12126eb6d7a272f37889061056090889088908890611a97565b60405180910390a1505050505050565b6000908152602081905260409020546001600160a01b031690565b6000818152600360205260409020600481015460069091015463ffffffff9091169060ff16915091565b60075460609060008167ffffffffffffffff8111156105e457634e487b7160e01b600052604160045260246000fd5b60405190808252806020026020018201604052801561060d578160200160208202803683370190505b50905060005b828110156106a4576007818154811061063c57634e487b7160e01b600052603260045260246000fd5b9060005260206000200160009054906101000a90046001600160a01b031682828151811061067a57634e487b7160e01b600052603260045260246000fd5b6001600160a01b03909216602092830291909101909101528061069c81611df2565b915050610613565b5091505090565b60013360009081526006602052604090206003015460ff1660018111156106e257634e487b7160e01b600052602160045260246000fd5b146106ff5760405162461bcd60e51b81526004016102ee90611be7565b3360009081526006602052604081206003015460ff16600181111561073457634e487b7160e01b600052602160045260246000fd5b14156107525760405162461bcd60e51b81526004016102ee90611bb0565b3360009081526006602090815260409091208251610778926002909201918401906115c1565b5050565b60008060008381526003602081905260409091206006015460ff16908111156107b557634e487b7160e01b600052602160045260246000fd5b14156107c357506001610297565b506000610297565b6107d3611635565b60075482106107f45760405162461bcd60e51b81526004016102ee90611ce9565b600660006007848154811061081957634e487b7160e01b600052603260045260246000fd5b60009182526020808320909101546001600160a01b039081168452838201949094526040928301909120825160808101845281549094168452600181015491840191909152600281018054919284019161087290611db7565b80601f016020809104026020016040519081016040528092919081815260200182805461089e90611db7565b80156108eb5780601f106108c0576101008083540402835291602001916108eb565b820191906000526020600020905b8154815290600101906020018083116108ce57829003601f168201915b5050509183525050600382015460209091019060ff16600181111561092057634e487b7160e01b600052602160045260246000fd5b600181111561093f57634e487b7160e01b600052602160045260246000fd5b90525092915050565b60075460609060008167ffffffffffffffff81111561097757634e487b7160e01b600052604160045260246000fd5b6040519080825280602002602001820160405280156109b057816020015b61099d611635565b8152602001906001900390816109955790505b50905060005b828110156106a45760066000600783815481106109e357634e487b7160e01b600052603260045260246000fd5b60009182526020808320909101546001600160a01b0390811684528382019490945260409283019091208251608081018452815490941684526001810154918401919091526002810180549192840191610a3c90611db7565b80601f0160208091040260200160405190810160405280929190818152602001828054610a6890611db7565b8015610ab55780601f10610a8a57610100808354040283529160200191610ab5565b820191906000526020600020905b815481529060010190602001808311610a9857829003601f168201915b5050509183525050600382015460209091019060ff166001811115610aea57634e487b7160e01b600052602160045260246000fd5b6001811115610b0957634e487b7160e01b600052602160045260246000fd5b81525050828281518110610b2d57634e487b7160e01b600052603260045260246000fd5b60200260200101819052508080610b4390611df2565b9150506109b6565b7fe3b0c44298fc1c149afbf4c8996fb92427ae41e4649b934ca495991b7852b855871415610b8b5760405162461bcd60e51b81526004016102ee90611b0b565b6001600160a01b0386166000908152600260209081526040808320549051610bb9928b928b92909101611a78565b604051602081830303815290604052805190602001209050866001600160a01b0316610c23610be7836112f9565b88888080601f01602080910402602001604051908101604052809392919081815260200183838082843760009201919091525061132c92505050565b6001600160a01b031614610c495760405162461bcd60e51b81526004016102ee90611c1e565b6001600160a01b0384166000908152600260209081526040808320549051610c77928c928992909101611a78565b604051602081830303815290604052805190602001209050846001600160a01b0316610ce1610ca5836112f9565b86868080601f01602080910402602001604051908101604052809392919081815260200183838082843760009201919091525061132c92505050565b6001600160a01b031614610d075760405162461bcd60e51b81526004016102ee90611c1e565b6000898152602081905260409020546001600160a01b03898116911614610d405760405162461bcd60e51b81526004016102ee90611b0b565b6001600160a01b0388166000908152600160205260409020548914610d775760405162461bcd60e51b81526004016102ee90611b42565b6001600160a01b03851660009081526001602052604090205415610dad5760405162461bcd60e51b81526004016102ee90611b42565b846001600160a01b0316886001600160a01b03161415610ddf5760405162461bcd60e51b81526004016102ee90611b42565b6001600160a01b0388811660008181526001602081815260408084208490558e8452838252808420805473ffffffffffffffffffffffffffffffffffffffff1916968c1696871790559483529081528382208d90559181526002909152908120805491610e4b83611df2565b90915550506001600160a01b0385166000908152600260205260408120805491610e7483611df2565b91905055507f8a4b6de0e358a86faed83ac3b603f7ba1e7024b1246c919dc9655df0af150ba8898987604051610eac93929190611a59565b60405180910390a1505050505050505050565b60075490565b60013360009081526006602052604090206003015460ff166001811115610efc57634e487b7160e01b600052602160045260246000fd5b14610f195760405162461bcd60e51b81526004016102ee90611be7565b600081815260036020819052604082206006015460ff1690811115610f4e57634e487b7160e01b600052602160045260246000fd5b1415610f6c5760405162461bcd60e51b81526004016102ee90611cb2565b60008181526003602052604090206001600682015460ff166003811115610fa357634e487b7160e01b600052602160045260246000fd5b14156107785733600090815260058201602052604090205460ff16610778573360009081526005820160205260408120805460ff1916600117905560048201805463ffffffff1691610ff483611e2b565b91906101000a81548163ffffffff021916908363ffffffff160217905550505050565b60013360009081526006602052604090206003015460ff16600181111561104e57634e487b7160e01b600052602160045260246000fd5b1461106b5760405162461bcd60e51b81526004016102ee90611be7565b60008181526003602052604090206001600682015460ff1660038111156110a257634e487b7160e01b600052602160045260246000fd5b14156107785760055460075460048301546110c59063ffffffff166103e8611d8b565b63ffffffff166110d59190611d6b565b106107785760018101546000908152602081905260409020546001600160a01b031615801561111e575060028101546001600160a01b0316600090815260016020526040902054155b156111c9576002818101805460018085018054600090815260208181526040808320805473ffffffffffffffffffffffffffffffffffffffff19166001600160a01b03978816179055925486548616835293905281902082905560068601805460ff19169095179094558454925493517f2a668f1f1578a32fdbb2a57170a32950d5ccfb0963f3d41fee2c018e8cd8e3bc946111bc94931690611a97565b60405180910390a1610778565b60068101805460ff191660031790558054600182015460028301546040517f997bd332592afa48968897f870ef53c00563e6968835358ab5dfcf47468c5e129361122293909290916001600160a01b0390911690611a97565b60405180910390a15050565b60008181526003602052604081206001600682015460ff16600381111561126557634e487b7160e01b600052602160045260246000fd5b14156112b15760055460075460048301546112889063ffffffff166103e8611d8b565b63ffffffff166112989190611d6b565b106112a7576001915050610297565b6002915050610297565b50600092915050565b6001600160a01b031660009081526002602052604090205490565b7fe3b0c44298fc1c149afbf4c8996fb92427ae41e4649b934ca495991b7852b85581565b7f19457468657265756d205369676e6564204d6573736167653a0a3332000000006000908152601c91909152603c902090565b600080600061133b8585611350565b9150915061134881611396565b509392505050565b6000808251604114156113875760208301516040840151606085015160001a61137b87828585611486565b9450945050505061138f565b506000905060025b9250929050565b60008160048111156113b857634e487b7160e01b600052602160045260246000fd5b14156113c357611483565b60018160048111156113e557634e487b7160e01b600052602160045260246000fd5b14156114035760405162461bcd60e51b81526004016102ee90611ad4565b600281600481111561142557634e487b7160e01b600052602160045260246000fd5b14156114435760405162461bcd60e51b81526004016102ee90611b79565b600381600481111561146557634e487b7160e01b600052602160045260246000fd5b14156114835760405162461bcd60e51b81526004016102ee90611c55565b50565b6000807f7fffffffffffffffffffffffffffffff5d576e7357a4501ddfe92f46681b20a08311156114bd5750600090506003611534565b6000600187878787604051600081526020016040526040516114e29493929190611ab6565b6020604051602081039080840390855afa158015611504573d6000803e3d6000fd5b5050604051601f1901519150506001600160a01b03811661152d57600060019250925050611534565b9150600090505b94509492505050565b82805461154990611db7565b90600052602060002090601f01602090048101928261156b57600085556115b1565b82601f106115845782800160ff198235161785556115b1565b828001600101855582156115b1579182015b828111156115b1578235825591602001919060010190611596565b506115bd929150611684565b5090565b8280546115cd90611db7565b90600052602060002090601f0160209004810192826115ef57600085556115b1565b82601f1061160857805160ff19168380011785556115b1565b828001600101855582156115b1579182015b828111156115b157825182559160200191906001019061161a565b604051806080016040528060006001600160a01b0316815260200160008152602001606081526020016000600181111561167f57634e487b7160e01b600052602160045260246000fd5b905290565b5b808211156115bd5760008155600101611685565b80356001600160a01b038116811461029757600080fd5b60008083601f8401126116c1578081fd5b50813567ffffffffffffffff8111156116d8578182fd5b60208301915083602082850101111561138f57600080fd5b600060208284031215611701578081fd5b61170a82611699565b9392505050565b600060208284031215611722578081fd5b5035919050565b600080600080600080600060a0888a031215611743578283fd5b8735965061175360208901611699565b9550604088013567ffffffffffffffff8082111561176f578485fd5b61177b8b838c016116b0565b909750955085915061178f60608b01611699565b945060808a01359150808211156117a4578384fd5b506117b18a828b016116b0565b989b979a50959850939692959293505050565b6000806000806000608086880312156117db578081fd5b85359450602086013593506117f260408701611699565b9250606086013567ffffffffffffffff81111561180d578182fd5b611819888289016116b0565b969995985093965092949392505050565b6000602080838503121561183c578182fd5b823567ffffffffffffffff80821115611853578384fd5b818501915085601f830112611866578384fd5b81358181111561187857611878611e7b565b60405184601f19601f840116820101818110848211171561189b5761189b611e7b565b60405281815283820185018810156118b1578586fd5b818585018683013790810190930193909352509392505050565b600281106118db576118db611e65565b9052565b60006001600160a01b038251168352602080830151818501526040830151608060408601528051806080870152835b8181101561192a5782810184015187820160a00152830161190e565b8181111561193b578460a083890101525b506060850151925061195060608701846118cb565b601f01601f19169490940160a001949350505050565b6001600160a01b0391909116815260200190565b6020808252825182820181905260009190848201906040850190845b818110156119bb5783516001600160a01b031683529284019291840191600101611996565b50909695505050505050565b6000602080830181845280855180835260408601915060408482028701019250838701855b82811015611a38577fffffffffffffffffffffffffffffffffffffffffffffffffffffffffffffffc0888603018452611a268583516118df565b945092850192908501906001016119ec565b5092979650505050505050565b901515815260200190565b90815260200190565b9283526001600160a01b03918216602084015216604082015260600190565b9283526001600160a01b03919091166020830152604082015260600190565b92835260208301919091526001600160a01b0316604082015260600190565b93845260ff9290921660208401526040830152606082015260800190565b60208082526018908201527f45434453413a20696e76616c6964207369676e61747572650000000000000000604082015260600190565b60208082526012908201527f496e76616c696420656d61696c20686173680000000000000000000000000000604082015260600190565b6020808252600f908201527f496e76616c696420616464726573730000000000000000000000000000000000604082015260600190565b6020808252601f908201527f45434453413a20696e76616c6964207369676e6174757265206c656e67746800604082015260600190565b6020808252601a908201527f4e6f206578697374732076616c696461746f72277320696e666f000000000000604082015260600190565b6020808252600d908201527f4e6f742076616c696461746f7200000000000000000000000000000000000000604082015260600190565b60208082526011908201527f496e76616c6964207369676e6174757265000000000000000000000000000000604082015260600190565b60208082526022908201527f45434453413a20696e76616c6964207369676e6174757265202773272076616c60408201527f7565000000000000000000000000000000000000000000000000000000000000606082015260800190565b6020808252600a908201527f496e76616c696420494400000000000000000000000000000000000000000000604082015260600190565b6020808252600c908201527f4f7574206f662072616e67650000000000000000000000000000000000000000604082015260600190565b60006020825261170a60208301846118df565b63ffffffff831681526040810160048310611d5057611d50611e65565b8260208301529392505050565b60ff91909116815260200190565b600082611d8657634e487b7160e01b81526012600452602481fd5b500490565b600063ffffffff80831681851681830481118215151615611dae57611dae611e4f565b02949350505050565b600281046001821680611dcb57607f821691505b60208210811415611dec57634e487b7160e01b600052602260045260246000fd5b50919050565b60007fffffffffffffffffffffffffffffffffffffffffffffffffffffffffffffffff821415611e2457611e24611e4f565b5060010190565b600063ffffffff80831681811415611e4557611e45611e4f565b6001019392505050565b634e487b7160e01b600052601160045260246000fd5b634e487b7160e01b600052602160045260246000fd5b634e487b7160e01b600052604160045260246000fdfea26469706673582212208ac57dfa2822f702c43a1a35596afcdddcb89d3576e2900ce8a492a8cfa09c7464736f6c63430008000033",
  "devdoc": {
    "kind": "dev",
    "methods": {
      "addRequest(bytes32,bytes32,address,bytes)": {
        "params": {
          "_email": " ",
          "_id": " ",
          "_signature": " ",
          "_wallet": ""
        }
      },
      "canCountVote(bytes32)": {
        "params": {
          "_id": " "
        }
      },
      "constructor": {
        "params": {
          "_validators": ""
        }
      },
      "countVote(bytes32)": {
        "params": {
          "_id": " "
        }
      },
      "getValidator(uint256)": {
        "params": {
          "_idx": " "
        }
      },
      "isAvailable(bytes32)": {
        "params": {
          "_id": " "
        }
      },
      "nonceOf(address)": {
        "params": {
          "_wallet": ""
        }
      },
      "toAddress(bytes32)": {
        "params": {
          "_email": " "
        }
      },
      "toEmail(address)": {
        "params": {
          "_wallet": ""
        }
      },
      "update(bytes32,address,bytes,address,bytes)": {
        "params": {
          "_email": " ",
          "_signature1": "  ",
          "_signature2": "  ",
          "_wallet1": " ",
          "_wallet2": " "
        }
      },
      "updateEndpoint(string)": {
        "params": {
          "_endpoint": "API "
        }
      },
      "voteRequest(bytes32)": {
        "params": {
          "_id": " "
        }
      }
    },
    "version": 1
  },
  "userdoc": {
    "events": {
      "AcceptedRequestItem(bytes32,bytes32,address)": {
        "notice": "    "
      },
      "AddedRequestItem(bytes32,bytes32,address)": {
        "notice": "    "
      },
      "RejectedRequestItem(bytes32,bytes32,address)": {
        "notice": "    "
      },
      "UpdatedLinkItem(bytes32,address,address)": {
        "notice": "    "
      }
    },
    "kind": "user",
    "methods": {
      "addRequest(bytes32,bytes32,address,bytes)": {
        "notice": "-   "
      },
      "canCountVote(bytes32)": {
        "notice": "    ."
      },
      "constructor": {
        "notice": ""
      },
      "countVote(bytes32)": {
        "notice": " ."
      },
      "getAddressOfValidators()": {
        "notice": "  ."
      },
      "getValidator(uint256)": {
        "notice": "  ."
      },
      "getValidatorLength()": {
        "notice": "  "
      },
      "getValidators()": {
        "notice": "  ."
      },
      "isAvailable(bytes32)": {
        "notice": "     ."
      },
      "nonceOf(address)": {
        "notice": "nonce  "
      },
      "toAddress(bytes32)": {
        "notice": "   ."
      },
      "toEmail(address)": {
        "notice": "   ."
      },
      "update(bytes32,address,bytes,address,bytes)": {
        "notice": "-   "
      },
      "updateEndpoint(string)": {
        "notice": "  API  ."
      },
      "voteRequest(bytes32)": {
        "notice": "   ."
      }
    },
    "notice": "Contract for converting e-mail to wallet",
    "version": 1
  },
  "storageLayout": {
    "storage": [
      {
        "astId": 1576,
        "contract": "contracts/LinkCollection.sol:LinkCollection",
        "label": "emailToAddress",
        "offset": 0,
        "slot": "0",
        "type": "t_mapping(t_bytes32,t_address)"
      },
      {
        "astId": 1580,
        "contract": "contracts/LinkCollection.sol:LinkCollection",
        "label": "addressToEmail",
        "offset": 0,
        "slot": "1",
        "type": "t_mapping(t_address,t_bytes32)"
      },
      {
        "astId": 1584,
        "contract": "contracts/LinkCollection.sol:LinkCollection",
        "label": "nonce",
        "offset": 0,
        "slot": "2",
        "type": "t_mapping(t_address,t_uint256)"
      },
      {
        "astId": 1612,
        "contract": "contracts/LinkCollection.sol:LinkCollection",
        "label": "requests",
        "offset": 0,
        "slot": "3",
        "type": "t_mapping(t_bytes32,t_struct(RequestItem)1607_storage)"
      },
      {
        "astId": 1615,
        "contract": "contracts/LinkCollection.sol:LinkCollection",
        "label": "requestIds",
        "offset": 0,
        "slot": "4",
        "type": "t_array(t_bytes32)dyn_storage"
      },
      {
        "astId": 1617,
        "contract": "contracts/LinkCollection.sol:LinkCollection",
        "label": "quorum",
        "offset": 0,
        "slot": "5",
        "type": "t_uint256"
      },
      {
        "astId": 1635,
        "contract": "contracts/LinkCollection.sol:LinkCollection",
        "label": "validators",
        "offset": 0,
        "slot": "6",
        "type": "t_mapping(t_address,t_struct(ValidatorItem)1630_storage)"
      },
      {
        "astId": 1638,
        "contract": "contracts/LinkCollection.sol:LinkCollection",
        "label": "validatorAddresses",
        "offset": 0,
        "slot": "7",
        "type": "t_array(t_address)dyn_storage"
      }
    ],
    "types": {
      "t_address": {
        "encoding": "inplace",
        "label": "address",
        "numberOfBytes": "20"
      },
      "t_array(t_address)dyn_storage": {
        "base": "t_address",
        "encoding": "dynamic_array",
        "label": "address[]",
        "numberOfBytes": "32"
      },
      "t_array(t_bytes32)dyn_storage": {
        "base": "t_bytes32",
        "encoding": "dynamic_array",
        "label": "bytes32[]",
        "numberOfBytes": "32"
      },
      "t_bool": {
        "encoding": "inplace",
        "label": "bool",
        "numberOfBytes": "1"
      },
      "t_bytes32": {
        "encoding": "inplace",
        "label": "bytes32",
        "numberOfBytes": "32"
      },
      "t_bytes_storage": {
        "encoding": "bytes",
        "label": "bytes",
        "numberOfBytes": "32"
      },
      "t_enum(RequestStatus)1589": {
        "encoding": "inplace",
        "label": "enum LinkCollection.RequestStatus",
        "numberOfBytes": "1"
      },
      "t_enum(ValidatorStatus)1620": {
        "encoding": "inplace",
        "label": "enum LinkCollection.ValidatorStatus",
        "numberOfBytes": "1"
      },
      "t_mapping(t_address,t_bool)": {
        "encoding": "mapping",
        "key": "t_address",
        "label": "mapping(address => bool)",
        "numberOfBytes": "32",
        "value": "t_bool"
      },
      "t_mapping(t_address,t_bytes32)": {
        "encoding": "mapping",
        "key": "t_address",
        "label": "mapping(address => bytes32)",
        "numberOfBytes": "32",
        "value": "t_bytes32"
      },
      "t_mapping(t_address,t_struct(ValidatorItem)1630_storage)": {
        "encoding": "mapping",
        "key": "t_address",
        "label": "mapping(address => struct LinkCollection.ValidatorItem)",
        "numberOfBytes": "32",
        "value": "t_struct(ValidatorItem)1630_storage"
      },
      "t_mapping(t_address,t_uint256)": {
        "encoding": "mapping",
        "key": "t_address",
        "label": "mapping(address => uint256)",
        "numberOfBytes": "32",
        "value": "t_uint256"
      },
      "t_mapping(t_bytes32,t_address)": {
        "encoding": "mapping",
        "key": "t_bytes32",
        "label": "mapping(bytes32 => address)",
        "numberOfBytes": "32",
        "value": "t_address"
      },
      "t_mapping(t_bytes32,t_struct(RequestItem)1607_storage)": {
        "encoding": "mapping",
        "key": "t_bytes32",
        "label": "mapping(bytes32 => struct LinkCollection.RequestItem)",
        "numberOfBytes": "32",
        "value": "t_struct(RequestItem)1607_storage"
      },
      "t_string_storage": {
        "encoding": "bytes",
        "label": "string",
        "numberOfBytes": "32"
      },
      "t_struct(RequestItem)1607_storage": {
        "encoding": "inplace",
        "label": "struct LinkCollection.RequestItem",
        "members": [
          {
            "astId": 1591,
            "contract": "contracts/LinkCollection.sol:LinkCollection",
            "label": "id",
            "offset": 0,
            "slot": "0",
            "type": "t_bytes32"
          },
          {
            "astId": 1593,
            "contract": "contracts/LinkCollection.sol:LinkCollection",
            "label": "email",
            "offset": 0,
            "slot": "1",
            "type": "t_bytes32"
          },
          {
            "astId": 1595,
            "contract": "contracts/LinkCollection.sol:LinkCollection",
            "label": "wallet",
            "offset": 0,
            "slot": "2",
            "type": "t_address"
          },
          {
            "astId": 1597,
            "contract": "contracts/LinkCollection.sol:LinkCollection",
            "label": "signature",
            "offset": 0,
            "slot": "3",
            "type": "t_bytes_storage"
          },
          {
            "astId": 1599,
            "contract": "contracts/LinkCollection.sol:LinkCollection",
            "label": "agreement",
            "offset": 0,
            "slot": "4",
            "type": "t_uint32"
          },
          {
            "astId": 1603,
            "contract": "contracts/LinkCollection.sol:LinkCollection",
            "label": "voters",
            "offset": 0,
            "slot": "5",
            "type": "t_mapping(t_address,t_bool)"
          },
          {
            "astId": 1606,
            "contract": "contracts/LinkCollection.sol:LinkCollection",
            "label": "status",
            "offset": 0,
            "slot": "6",
            "type": "t_enum(RequestStatus)1589"
          }
        ],
        "numberOfBytes": "224"
      },
      "t_struct(ValidatorItem)1630_storage": {
        "encoding": "inplace",
        "label": "struct LinkCollection.ValidatorItem",
        "members": [
          {
            "astId": 1622,
            "contract": "contracts/LinkCollection.sol:LinkCollection",
            "label": "validator",
            "offset": 0,
            "slot": "0",
            "type": "t_address"
          },
          {
            "astId": 1624,
            "contract": "contracts/LinkCollection.sol:LinkCollection",
            "label": "index",
            "offset": 0,
            "slot": "1",
            "type": "t_uint256"
          },
          {
            "astId": 1626,
            "contract": "contracts/LinkCollection.sol:LinkCollection",
            "label": "endpoint",
            "offset": 0,
            "slot": "2",
            "type": "t_string_storage"
          },
          {
            "astId": 1629,
            "contract": "contracts/LinkCollection.sol:LinkCollection",
            "label": "status",
            "offset": 0,
            "slot": "3",
            "type": "t_enum(ValidatorStatus)1620"
          }
        ],
        "numberOfBytes": "128"
      },
      "t_uint256": {
        "encoding": "inplace",
        "label": "uint256",
        "numberOfBytes": "32"
      },
      "t_uint32": {
        "encoding": "inplace",
        "label": "uint32",
        "numberOfBytes": "4"
      }
    }
  }
}