{
  "address": "0xf1CEFe1b28ee6768597f177eca6616aD44C96418",
  "abi": [
    {
      "inputs": [
        {
          "internalType": "address[]",
          "name": "_validators",
          "type": "address[]"
        }
      ],
      "stateMutability": "nonpayable",
      "type": "constructor"
    },
    {
      "anonymous": false,
      "inputs": [
        {
          "indexed": false,
          "internalType": "uint256",
          "name": "id",
          "type": "uint256"
        },
        {
          "indexed": false,
          "internalType": "bytes32",
          "name": "email",
          "type": "bytes32"
        },
        {
          "indexed": false,
          "internalType": "address",
          "name": "wallet",
          "type": "address"
        }
      ],
      "name": "AcceptedRequestItem",
      "type": "event"
    },
    {
      "anonymous": false,
      "inputs": [
        {
          "indexed": false,
          "internalType": "uint256",
          "name": "id",
          "type": "uint256"
        },
        {
          "indexed": false,
          "internalType": "bytes32",
          "name": "email",
          "type": "bytes32"
        },
        {
          "indexed": false,
          "internalType": "address",
          "name": "wallet",
          "type": "address"
        }
      ],
      "name": "AddedRequestItem",
      "type": "event"
    },
    {
      "anonymous": false,
      "inputs": [
        {
          "indexed": false,
          "internalType": "uint256",
          "name": "id",
          "type": "uint256"
        },
        {
          "indexed": false,
          "internalType": "bytes32",
          "name": "email",
          "type": "bytes32"
        },
        {
          "indexed": false,
          "internalType": "address",
          "name": "wallet",
          "type": "address"
        }
      ],
      "name": "RejectedRequestItem",
      "type": "event"
    },
    {
      "anonymous": false,
      "inputs": [
        {
          "indexed": false,
          "internalType": "bytes32",
          "name": "email",
          "type": "bytes32"
        },
        {
          "indexed": false,
          "internalType": "address",
          "name": "wallet1",
          "type": "address"
        },
        {
          "indexed": false,
          "internalType": "address",
          "name": "wallet2",
          "type": "address"
        }
      ],
      "name": "UpdatedLinkItem",
      "type": "event"
    },
    {
      "inputs": [],
      "name": "NULL",
      "outputs": [
        {
          "internalType": "bytes32",
          "name": "",
          "type": "bytes32"
        }
      ],
      "stateMutability": "view",
      "type": "function"
    },
    {
      "inputs": [
        {
          "internalType": "bytes32",
          "name": "_email",
          "type": "bytes32"
        },
        {
          "internalType": "address",
          "name": "_wallet",
          "type": "address"
        },
        {
          "internalType": "bytes",
          "name": "_signature",
          "type": "bytes"
        }
      ],
      "name": "addRequest",
      "outputs": [],
      "stateMutability": "nonpayable",
      "type": "function"
    },
    {
      "inputs": [
        {
          "internalType": "address",
          "name": "_wallet",
          "type": "address"
        }
      ],
      "name": "nonceOf",
      "outputs": [
        {
          "internalType": "uint256",
          "name": "",
          "type": "uint256"
        }
      ],
      "stateMutability": "view",
      "type": "function"
    },
    {
      "inputs": [
        {
          "internalType": "bytes32",
          "name": "_email",
          "type": "bytes32"
        }
      ],
      "name": "toAddress",
      "outputs": [
        {
          "internalType": "address",
          "name": "",
          "type": "address"
        }
      ],
      "stateMutability": "view",
      "type": "function"
    },
    {
      "inputs": [
        {
          "internalType": "address",
          "name": "_wallet",
          "type": "address"
        }
      ],
      "name": "toEmail",
      "outputs": [
        {
          "internalType": "bytes32",
          "name": "",
          "type": "bytes32"
        }
      ],
      "stateMutability": "view",
      "type": "function"
    },
    {
      "inputs": [
        {
          "internalType": "bytes32",
          "name": "_email",
          "type": "bytes32"
        },
        {
          "internalType": "address",
          "name": "_wallet1",
          "type": "address"
        },
        {
          "internalType": "bytes",
          "name": "_signature1",
          "type": "bytes"
        },
        {
          "internalType": "address",
          "name": "_wallet2",
          "type": "address"
        },
        {
          "internalType": "bytes",
          "name": "_signature2",
          "type": "bytes"
        }
      ],
      "name": "update",
      "outputs": [],
      "stateMutability": "nonpayable",
      "type": "function"
    },
    {
      "inputs": [
        {
          "internalType": "uint256",
          "name": "_id",
          "type": "uint256"
        },
        {
          "internalType": "enum LinkCollection.Ballot",
          "name": "_ballot",
          "type": "uint8"
        }
      ],
      "name": "voteRequest",
      "outputs": [],
      "stateMutability": "nonpayable",
      "type": "function"
    }
  ],
  "transactionHash": "0xcd5158853fd3fefcea9bde18609cd48ed5c7f9c7dcd4d0cd3c4ca7d0d415f42b",
  "args": [
    [
      "0xc86c00147049695C3Cad5eA4ebb75B6bd4f09126"
    ]
  ],
  "numDeployments": 1,
  "solcInputHash": "0cef2b85beb54fed164e54d26dc2b571",
  "bytecode": "0x60806040523480156200001157600080fd5b50604051620018b7380380620018b78339810160408190526200003491620001fe565b60005b8151811015620001c257600060405180604001604052808484815181106200006f57634e487b7160e01b600052603260045260246000fd5b60200260200101516001600160a01b03168152602001600180811115620000a657634e487b7160e01b600052602160045260246000fd5b81525090506007838381518110620000ce57634e487b7160e01b600052603260045260246000fd5b6020908102919091018101518254600181018455600093845291832090910180546001600160a01b0319166001600160a01b03909216919091179055835182916006918690869081106200013257634e487b7160e01b600052603260045260246000fd5b6020908102919091018101516001600160a01b039081168352828201939093526040909101600020835181546001600160a01b0319169316929092178083559083015190829060ff60a01b1916600160a01b836001811115620001a557634e487b7160e01b600052602160045260246000fd5b02179055509050505080620001ba90620002ed565b905062000037565b50620001d260036107d0620002cc565b6004555060006005556200032b565b80516001600160a01b0381168114620001f957600080fd5b919050565b6000602080838503121562000211578182fd5b82516001600160401b038082111562000228578384fd5b818501915085601f8301126200023c578384fd5b81518181111562000251576200025162000315565b8381026040518582820101818110858211171562000273576200027362000315565b604052828152858101935084860182860187018a101562000292578788fd5b8795505b83861015620002bf57620002aa81620001e1565b85526001959095019493860193860162000296565b5098975050505050505050565b600082620002e857634e487b7160e01b81526012600452602481fd5b500490565b60006000198214156200030e57634e487b7160e01b81526011600452602481fd5b5060010190565b634e487b7160e01b600052604160045260246000fd5b61157c806200033b6000396000f3fe608060405234801561001057600080fd5b506004361061007d5760003560e01c8063a0c58f6a1161005b578063a0c58f6a146100e0578063bd3f40ad146100f3578063ed2a2d6414610106578063f26be3fc146101195761007d565b806318907d4c14610082578063341f6623146100ab5780634df9d558146100cb575b600080fd5b61009561009036600461109c565b610121565b6040516100a2919061120e565b60405180910390f35b6100be6100b93660046110bd565b610140565b6040516100a291906111fa565b6100de6100d93660046111c8565b61015b565b005b6100de6100ee3660046110d5565b61073b565b6100de61010136600461112d565b610997565b61009561011436600461109c565b610d0b565b610095610d26565b6001600160a01b0381166000908152600160205260409020545b919050565b6000908152602081905260409020546001600160a01b031690565b60013360009081526006602052604090205474010000000000000000000000000000000000000000900460ff1660018111156101a757634e487b7160e01b600052602160045260246000fd5b146101cd5760405162461bcd60e51b81526004016101c4906112aa565b60405180910390fd5b600082815260036020819052604082206006015460ff169081111561020257634e487b7160e01b600052602160045260246000fd5b14156102205760405162461bcd60e51b81526004016101c49061141a565b600260008381526003602081905260409091206006015460ff169081111561025857634e487b7160e01b600052602160045260246000fd5b146107375780600381111561027d57634e487b7160e01b600052602160045260246000fd5b60008381526003602081815260408084203385526005019091529091205460ff16908111156102bc57634e487b7160e01b600052602160045260246000fd5b1461073757600160008381526003602081815260408084203385526005019091529091205460ff169081111561030257634e487b7160e01b600052602160045260246000fd5b141561034f576000828152600360205260408120600401805463ffffffff169161032b83611496565b91906101000a81548163ffffffff021916908363ffffffff16021790555050610459565b600260008381526003602081815260408084203385526005019091529091205460ff169081111561039057634e487b7160e01b600052602160045260246000fd5b14156103c357600082815260036020526040902060049081018054640100000000900463ffffffff169161032b83611496565b60008281526003602081815260408084203385526005019091529091205460ff168181111561040257634e487b7160e01b600052602160045260246000fd5b1415610459576000828152600360205260409020600401805468010000000000000000900463ffffffff1690600861043983611496565b91906101000a81548163ffffffff021916908363ffffffff160217905550505b600181600381111561047b57634e487b7160e01b600052602160045260246000fd5b14156104c8576000828152600360205260408120600401805463ffffffff16916104a48361150c565b91906101000a81548163ffffffff021916908363ffffffff1602179055505061056e565b60028160038111156104ea57634e487b7160e01b600052602160045260246000fd5b141561051d57600082815260036020526040902060049081018054640100000000900463ffffffff16916104a48361150c565b6000828152600360205260409020600401805468010000000000000000900463ffffffff1690600861054e8361150c565b91906101000a81548163ffffffff021916908363ffffffff160217905550505b6004805460075460008581526003602052604090209092015490919061059c9063ffffffff166103e861146a565b63ffffffff166105ac919061144a565b10610737576000828152600360209081526040808320600101548352908290529020546001600160a01b031615801561060a57506000828152600360209081526040808320600201546001600160a01b031683526001909152902054155b156106c557600082815260036020818152604080842060028082018054600180850180548a52898852868a20805473ffffffffffffffffffffffffffffffffffffffff19166001600160a01b0394851617905554835483168a52908752858920819055978a90529590945260068201805460ff1916909117905554915490517f372e9b969935cbc67f594f69ec66354a4b176bedc9d0ed9745543deea1c7e8eb946106b8949092169061142b565b60405180910390a1610737565b60008281526003602081905260409182902060068101805460ff19169092179091558054600182015460029092015492517f1313817a5b5b3a2818949b6784018856aa5e4fa5315f50863764eb10ce4912389361072e93916001600160a01b039091169061142b565b60405180910390a15b5050565b7fe3b0c44298fc1c149afbf4c8996fb92427ae41e4649b934ca495991b7852b85584141561077b5760405162461bcd60e51b81526004016101c490611318565b6001600160a01b03831660009081526002602090815260408083205490516107a99288928892909101611236565b604051602081830303815290604052805190602001209050836001600160a01b03166108136107d783610d4a565b85858080601f016020809104026020016040519081016040528093929190818152602001838380828437600092019190915250610d7d92505050565b6001600160a01b0316146108395760405162461bcd60e51b81526004016101c4906113e3565b6000858152602081905260409020546001600160a01b03161561086e5760405162461bcd60e51b81526004016101c490611318565b6001600160a01b038416600090815260016020526040902054156108a45760405162461bcd60e51b81526004016101c49061134f565b6001600160a01b03841660009081526002602052604081208054916108c8836114f1565b909155505060058054600091826108de836114f1565b9091555060008181526003602081905260409091208281556001810189905560028101805473ffffffffffffffffffffffffffffffffffffffff19166001600160a01b038a1617905591925061093691018585610fac565b5060008181526003602052604090819020600601805460ff19166001179055517f2d7a17729b83427702dece33372de9fc030d9563a52635e4213e9b829fdf29f4906109879083908990899061142b565b60405180910390a1505050505050565b7fe3b0c44298fc1c149afbf4c8996fb92427ae41e4649b934ca495991b7852b8558714156109d75760405162461bcd60e51b81526004016101c490611318565b6001600160a01b0386166000908152600260209081526040808320549051610a05928b928b92909101611236565b604051602081830303815290604052805190602001209050866001600160a01b0316610a6f610a3383610d4a565b88888080601f016020809104026020016040519081016040528093929190818152602001838380828437600092019190915250610d7d92505050565b6001600160a01b031614610a955760405162461bcd60e51b81526004016101c4906113e3565b6001600160a01b0384166000908152600260209081526040808320549051610ac3928c928992909101611236565b604051602081830303815290604052805190602001209050846001600160a01b0316610b2d610af183610d4a565b86868080601f016020809104026020016040519081016040528093929190818152602001838380828437600092019190915250610d7d92505050565b6001600160a01b031614610b535760405162461bcd60e51b81526004016101c4906113e3565b6000898152602081905260409020546001600160a01b03898116911614610b8c5760405162461bcd60e51b81526004016101c490611318565b6001600160a01b0388166000908152600160205260409020548914610bc35760405162461bcd60e51b81526004016101c49061134f565b6001600160a01b03851660009081526001602052604090205415610bf95760405162461bcd60e51b81526004016101c49061134f565b846001600160a01b0316886001600160a01b03161415610c2b5760405162461bcd60e51b81526004016101c49061134f565b6001600160a01b0388811660008181526001602081815260408084208490558e8452838252808420805473ffffffffffffffffffffffffffffffffffffffff1916968c1696871790559483529081528382208d90559181526002909152908120805491610c97836114f1565b90915550506001600160a01b0385166000908152600260205260408120805491610cc0836114f1565b91905055507f8a4b6de0e358a86faed83ac3b603f7ba1e7024b1246c919dc9655df0af150ba8898987604051610cf893929190611217565b60405180910390a1505050505050505050565b6001600160a01b031660009081526002602052604090205490565b7fe3b0c44298fc1c149afbf4c8996fb92427ae41e4649b934ca495991b7852b85581565b7f19457468657265756d205369676e6564204d6573736167653a0a3332000000006000908152601c91909152603c902090565b6000806000610d8c8585610da1565b91509150610d9981610de7565b509392505050565b600080825160411415610dd85760208301516040840151606085015160001a610dcc87828585610ed7565b94509450505050610de0565b506000905060025b9250929050565b6000816004811115610e0957634e487b7160e01b600052602160045260246000fd5b1415610e1457610ed4565b6001816004811115610e3657634e487b7160e01b600052602160045260246000fd5b1415610e545760405162461bcd60e51b81526004016101c490611273565b6002816004811115610e7657634e487b7160e01b600052602160045260246000fd5b1415610e945760405162461bcd60e51b81526004016101c4906112e1565b6003816004811115610eb657634e487b7160e01b600052602160045260246000fd5b1415610ed45760405162461bcd60e51b81526004016101c490611386565b50565b6000807f7fffffffffffffffffffffffffffffff5d576e7357a4501ddfe92f46681b20a0831115610f0e5750600090506003610fa3565b600060018787878760405160008152602001604052604051610f339493929190611255565b6020604051602081039080840390855afa158015610f55573d6000803e3d6000fd5b50506040517fffffffffffffffffffffffffffffffffffffffffffffffffffffffffffffffe001519150506001600160a01b038116610f9c57600060019250925050610fa3565b9150600090505b94509492505050565b828054610fb8906114b6565b90600052602060002090601f016020900481019282610fda5760008555611020565b82601f10610ff35782800160ff19823516178555611020565b82800160010185558215611020579182015b82811115611020578235825591602001919060010190611005565b5061102c929150611030565b5090565b5b8082111561102c5760008155600101611031565b80356001600160a01b038116811461013b57600080fd5b60008083601f84011261106d578182fd5b50813567ffffffffffffffff811115611084578182fd5b602083019150836020828501011115610de057600080fd5b6000602082840312156110ad578081fd5b6110b682611045565b9392505050565b6000602082840312156110ce578081fd5b5035919050565b600080600080606085870312156110ea578283fd5b843593506110fa60208601611045565b9250604085013567ffffffffffffffff811115611115578283fd5b6111218782880161105c565b95989497509550505050565b600080600080600080600060a0888a031215611147578283fd5b8735965061115760208901611045565b9550604088013567ffffffffffffffff80821115611173578485fd5b61117f8b838c0161105c565b909750955085915061119360608b01611045565b945060808a01359150808211156111a8578384fd5b506111b58a828b0161105c565b989b979a50959850939692959293505050565b600080604083850312156111da578182fd5b823591506020830135600481106111ef578182fd5b809150509250929050565b6001600160a01b0391909116815260200190565b90815260200190565b9283526001600160a01b03918216602084015216604082015260600190565b9283526001600160a01b03919091166020830152604082015260600190565b93845260ff9290921660208401526040830152606082015260800190565b60208082526018908201527f45434453413a20696e76616c6964207369676e61747572650000000000000000604082015260600190565b60208082526004908201527f4530303300000000000000000000000000000000000000000000000000000000604082015260600190565b6020808252601f908201527f45434453413a20696e76616c6964207369676e6174757265206c656e67746800604082015260600190565b60208082526004908201527f4530303100000000000000000000000000000000000000000000000000000000604082015260600190565b60208082526004908201527f4530303200000000000000000000000000000000000000000000000000000000604082015260600190565b60208082526022908201527f45434453413a20696e76616c6964207369676e6174757265202773272076616c60408201527f7565000000000000000000000000000000000000000000000000000000000000606082015260800190565b60208082526004908201527f4530303000000000000000000000000000000000000000000000000000000000604082015260600190565b602080825260009082015260400190565b92835260208301919091526001600160a01b0316604082015260600190565b60008261146557634e487b7160e01b81526012600452602481fd5b500490565b600063ffffffff8083168185168183048111821515161561148d5761148d611530565b02949350505050565b600063ffffffff8216806114ac576114ac611530565b6000190192915050565b6002810460018216806114ca57607f821691505b602082108114156114eb57634e487b7160e01b600052602260045260246000fd5b50919050565b600060001982141561150557611505611530565b5060010190565b600063ffffffff8083168181141561152657611526611530565b6001019392505050565b634e487b7160e01b600052601160045260246000fdfea26469706673582212203ad18ff701ab9b959edfbee37cbe648204aaa79abe10a2d3b086025c088efe5964736f6c63430008000033",
  "devdoc": {
    "kind": "dev",
    "methods": {
      "addRequest(bytes32,address,bytes)": {
        "params": {
          "_email": " ",
          "_signature": " ",
          "_wallet": ""
        }
      },
      "constructor": {
        "params": {
          "_validators": ""
        }
      },
      "nonceOf(address)": {
        "params": {
          "_wallet": ""
        }
      },
      "toAddress(bytes32)": {
        "params": {
          "_email": " "
        }
      },
      "toEmail(address)": {
        "params": {
          "_wallet": ""
        }
      },
      "update(bytes32,address,bytes,address,bytes)": {
        "params": {
          "_email": " ",
          "_signature1": "  ",
          "_signature2": "  ",
          "_wallet1": " ",
          "_wallet2": " "
        }
      },
      "voteRequest(uint256,uint8)": {
        "params": {
          "_ballot": " ",
          "_id": " "
        }
      }
    },
    "version": 1
  },
  "userdoc": {
    "events": {
      "AcceptedRequestItem(uint256,bytes32,address)": {
        "notice": "    "
      },
      "AddedRequestItem(uint256,bytes32,address)": {
        "notice": "    "
      },
      "RejectedRequestItem(uint256,bytes32,address)": {
        "notice": "    "
      },
      "UpdatedLinkItem(bytes32,address,address)": {
        "notice": "    "
      }
    },
    "kind": "user",
    "methods": {
      "addRequest(bytes32,address,bytes)": {
        "notice": "-   "
      },
      "constructor": {
        "notice": ""
      },
      "nonceOf(address)": {
        "notice": "nonce  "
      },
      "toAddress(bytes32)": {
        "notice": "   ."
      },
      "toEmail(address)": {
        "notice": "   ."
      },
      "update(bytes32,address,bytes,address,bytes)": {
        "notice": "-   "
      },
      "voteRequest(uint256,uint8)": {
        "notice": "   ."
      }
    },
    "notice": "Contract for converting e-mail to wallet",
    "version": 1
  },
  "storageLayout": {
    "storage": [
      {
        "astId": 1576,
        "contract": "contracts/LinkCollection.sol:LinkCollection",
        "label": "emailToAddress",
        "offset": 0,
        "slot": "0",
        "type": "t_mapping(t_bytes32,t_address)"
      },
      {
        "astId": 1580,
        "contract": "contracts/LinkCollection.sol:LinkCollection",
        "label": "addressToEmail",
        "offset": 0,
        "slot": "1",
        "type": "t_mapping(t_address,t_bytes32)"
      },
      {
        "astId": 1584,
        "contract": "contracts/LinkCollection.sol:LinkCollection",
        "label": "nonce",
        "offset": 0,
        "slot": "2",
        "type": "t_mapping(t_address,t_uint256)"
      },
      {
        "astId": 1617,
        "contract": "contracts/LinkCollection.sol:LinkCollection",
        "label": "requests",
        "offset": 0,
        "slot": "3",
        "type": "t_mapping(t_uint256,t_struct(RequestItem)1612_storage)"
      },
      {
        "astId": 1624,
        "contract": "contracts/LinkCollection.sol:LinkCollection",
        "label": "quorum",
        "offset": 0,
        "slot": "4",
        "type": "t_uint256"
      },
      {
        "astId": 1626,
        "contract": "contracts/LinkCollection.sol:LinkCollection",
        "label": "latestId",
        "offset": 0,
        "slot": "5",
        "type": "t_uint256"
      },
      {
        "astId": 1640,
        "contract": "contracts/LinkCollection.sol:LinkCollection",
        "label": "validators",
        "offset": 0,
        "slot": "6",
        "type": "t_mapping(t_address,t_struct(ValidatorItem)1635_storage)"
      },
      {
        "astId": 1643,
        "contract": "contracts/LinkCollection.sol:LinkCollection",
        "label": "validatorItems",
        "offset": 0,
        "slot": "7",
        "type": "t_array(t_address)dyn_storage"
      }
    ],
    "types": {
      "t_address": {
        "encoding": "inplace",
        "label": "address",
        "numberOfBytes": "20"
      },
      "t_array(t_address)dyn_storage": {
        "base": "t_address",
        "encoding": "dynamic_array",
        "label": "address[]",
        "numberOfBytes": "32"
      },
      "t_bytes32": {
        "encoding": "inplace",
        "label": "bytes32",
        "numberOfBytes": "32"
      },
      "t_bytes_storage": {
        "encoding": "bytes",
        "label": "bytes",
        "numberOfBytes": "32"
      },
      "t_enum(Ballot)1622": {
        "encoding": "inplace",
        "label": "enum LinkCollection.Ballot",
        "numberOfBytes": "1"
      },
      "t_enum(RequestStatus)1589": {
        "encoding": "inplace",
        "label": "enum LinkCollection.RequestStatus",
        "numberOfBytes": "1"
      },
      "t_enum(ValidatorStatus)1629": {
        "encoding": "inplace",
        "label": "enum LinkCollection.ValidatorStatus",
        "numberOfBytes": "1"
      },
      "t_mapping(t_address,t_bytes32)": {
        "encoding": "mapping",
        "key": "t_address",
        "label": "mapping(address => bytes32)",
        "numberOfBytes": "32",
        "value": "t_bytes32"
      },
      "t_mapping(t_address,t_enum(Ballot)1622)": {
        "encoding": "mapping",
        "key": "t_address",
        "label": "mapping(address => enum LinkCollection.Ballot)",
        "numberOfBytes": "32",
        "value": "t_enum(Ballot)1622"
      },
      "t_mapping(t_address,t_struct(ValidatorItem)1635_storage)": {
        "encoding": "mapping",
        "key": "t_address",
        "label": "mapping(address => struct LinkCollection.ValidatorItem)",
        "numberOfBytes": "32",
        "value": "t_struct(ValidatorItem)1635_storage"
      },
      "t_mapping(t_address,t_uint256)": {
        "encoding": "mapping",
        "key": "t_address",
        "label": "mapping(address => uint256)",
        "numberOfBytes": "32",
        "value": "t_uint256"
      },
      "t_mapping(t_bytes32,t_address)": {
        "encoding": "mapping",
        "key": "t_bytes32",
        "label": "mapping(bytes32 => address)",
        "numberOfBytes": "32",
        "value": "t_address"
      },
      "t_mapping(t_uint256,t_struct(RequestItem)1612_storage)": {
        "encoding": "mapping",
        "key": "t_uint256",
        "label": "mapping(uint256 => struct LinkCollection.RequestItem)",
        "numberOfBytes": "32",
        "value": "t_struct(RequestItem)1612_storage"
      },
      "t_struct(RequestItem)1612_storage": {
        "encoding": "inplace",
        "label": "struct LinkCollection.RequestItem",
        "members": [
          {
            "astId": 1591,
            "contract": "contracts/LinkCollection.sol:LinkCollection",
            "label": "id",
            "offset": 0,
            "slot": "0",
            "type": "t_uint256"
          },
          {
            "astId": 1593,
            "contract": "contracts/LinkCollection.sol:LinkCollection",
            "label": "email",
            "offset": 0,
            "slot": "1",
            "type": "t_bytes32"
          },
          {
            "astId": 1595,
            "contract": "contracts/LinkCollection.sol:LinkCollection",
            "label": "wallet",
            "offset": 0,
            "slot": "2",
            "type": "t_address"
          },
          {
            "astId": 1597,
            "contract": "contracts/LinkCollection.sol:LinkCollection",
            "label": "signature",
            "offset": 0,
            "slot": "3",
            "type": "t_bytes_storage"
          },
          {
            "astId": 1599,
            "contract": "contracts/LinkCollection.sol:LinkCollection",
            "label": "agreement",
            "offset": 0,
            "slot": "4",
            "type": "t_uint32"
          },
          {
            "astId": 1601,
            "contract": "contracts/LinkCollection.sol:LinkCollection",
            "label": "opposition",
            "offset": 4,
            "slot": "4",
            "type": "t_uint32"
          },
          {
            "astId": 1603,
            "contract": "contracts/LinkCollection.sol:LinkCollection",
            "label": "abstaining",
            "offset": 8,
            "slot": "4",
            "type": "t_uint32"
          },
          {
            "astId": 1608,
            "contract": "contracts/LinkCollection.sol:LinkCollection",
            "label": "ballots",
            "offset": 0,
            "slot": "5",
            "type": "t_mapping(t_address,t_enum(Ballot)1622)"
          },
          {
            "astId": 1611,
            "contract": "contracts/LinkCollection.sol:LinkCollection",
            "label": "status",
            "offset": 0,
            "slot": "6",
            "type": "t_enum(RequestStatus)1589"
          }
        ],
        "numberOfBytes": "224"
      },
      "t_struct(ValidatorItem)1635_storage": {
        "encoding": "inplace",
        "label": "struct LinkCollection.ValidatorItem",
        "members": [
          {
            "astId": 1631,
            "contract": "contracts/LinkCollection.sol:LinkCollection",
            "label": "validator",
            "offset": 0,
            "slot": "0",
            "type": "t_address"
          },
          {
            "astId": 1634,
            "contract": "contracts/LinkCollection.sol:LinkCollection",
            "label": "status",
            "offset": 20,
            "slot": "0",
            "type": "t_enum(ValidatorStatus)1629"
          }
        ],
        "numberOfBytes": "32"
      },
      "t_uint256": {
        "encoding": "inplace",
        "label": "uint256",
        "numberOfBytes": "32"
      },
      "t_uint32": {
        "encoding": "inplace",
        "label": "uint32",
        "numberOfBytes": "4"
      }
    }
  }
}